:100000000C9434000C9451000C9451000C94510049
:100010000C9451000C9451000C9451000C9451001C
:100020000C9451000C9451000C9451000C9451000C
:100030000C9451000C9451000C94E8000C94510065
:100040000C9451000C9451000C9451000C945100EC
:100050000C9451000C9451000C9451000C945100DC
:100060000C9451000C94510011241FBECFEFD8E026
:10007000DEBFCDBF11E0A0E0B1E0E0E0F4E002C0FF
:1000800005900D92AE30B107D9F721E0AEE0B1E0B6
:1000900001C01D92AB31B207E1F70E94E5000C945C
:1000A000FE010C940000CF93DF93EC01EEE0F1E051
:1000B0002AE030E0B9010E94D601DC01AC5FBE4FFE
:1000C0008C918083CB01B9010E94D601DC01AC5F29
:1000D000BE4F8C918183CE0164E670E00E94D60110
:1000E000CB01B9010E94D601DC01AC5FBE4F8C91FF
:1000F0008283CE0168EE73E00E94D601CB01B90184
:100100000E94D601DC01AC5FBE4F8C918383DF91EE
:10011000CF9108950F931F93CF93DF938C01262FD8
:10012000CEE0D1E0EAE0F0E0BF010E94D601CB01D1
:10013000BF010E94D601DC01AC5FBE4F8C91888369
:10014000C80164E670E00E94D601CB01BF010E94A5
:10015000D601FC01EC5FFE4F808189838DEC289FE6
:10016000E12D1124E695E695E6953E2F330F932F6A
:10017000990F990F930F291BA22FB0E0AC5FBE4FD0
:100180009C919B7F9A83E89F812D1124869586956B
:100190008695880F982F990F990F890FE81BF0E02B
:1001A000EC5FFE4F80818B83DF91CF911F910F9188
:1001B000089584B18F6084B985B1807F85B98AB193
:1001C0008FEF8AB99BB18BB908950E948B01FFCF45
:1001D0001F920F920FB60F9211242F933F934F93BC
:1001E0005F936F937F938F939F93AF93BF93EF939F
:1001F000FF9380911A01882349F080911201909118
:1002000013010196909313018093120180911201C2
:1002100090911301883E9340D4F0109213011092F4
:100220001201809117018F5F809317018091170150
:100230008C3368F010921701809116018F5F8093C4
:100240001601809116018C3310F0109216018091E6
:100250001201909113016AE070E00E94D601892B8F
:1002600039F480911901882319F081E080931401F9
:1002700080911801882391F0109218016091170164
:1002800080911201909113010E948A001092130133
:10029000109212011092170110921601809115010F
:1002A0008F5F8093150180911501843010F01092BA
:1002B000150185B1807F85B9E091150195B1F0E018
:1002C000E050FF4F8081892B85B9E0911501F0E066
:1002D000E25FFE4F80818BB9FF91EF91BF91AF91AB
:1002E0009F918F917F916F915F914F913F912F914E
:1002F0000F900FBE0F901F90189584B5826084BD3B
:1003000085B5836085BD89EF87BDEEE6F0E080812D
:1003100082608083089584B18F7C84B90E94D90063
:1003200080E090E00E9453000E947D017894C1E03B
:10033000D1E080911401882351F010921401609152
:10034000170180911201909113010E948A00CC2321
:1003500031F11C9914C085E08A95F1F700001C99D1
:10036000E8CFD0931A0180911901882321F01092CF
:100370001901C0E0DECFD0931901C0E0DACF1D999A
:10038000D8CF85E08A95F1F700001D99D2CF109261
:100390001A0110921901D0931801C0E0CACF1C9B1A
:1003A000C8CFC3B1C5FBCC27C0F9C3CF97FB072E7D
:1003B00016F4009407D077FD09D00E94EA0107FCEB
:1003C00005D03EF4909581959F4F08957095619565
:1003D0007F4F0895AA1BBB1B51E107C0AA1FBB1F7B
:1003E000A617B70710F0A61BB70B881F991F5A95C1
:1003F000A9F780959095BC01CD010895F894FFCFA1
:0E04000008020401057D46543C94A45D041CD2
:00000001FF
