S013000061726475696E6F5F756E6F2E737265636E
S11300000C9434000C9451000C9451000C94510045
S11300100C9451000C9451000C9451000C94510018
S11300200C9451000C9451000C9451000C94510008
S11300300C9451000C9451000C9451000C945100F8
S11300400C9451000C9451000C9451000C945100E8
S11300500C9451000C9451000C9451000C945100D8
S11300600C9451000C94510011241FBECFEFD8E022
S1130070DEBFCDBF11E0A0E0B1E0E4EBF1E002C0EF
S113008005900D92AA30B107D9F721E0AAE0B1E0BA
S113009001C01D92A231B207E1F70E94D3000C9473
S11300A0D8000C940000E0E0F0E061E070E01CC0D7
S11300B045B99B01082E02C0220F331F0A94E2F7B0
S11300C020952BB92FEF31EE54E0215030405040B1
S11300D0E1F700C0000001968830910549F715B892
S11300E03196E430F10531F1462F0E2E01C0440F54
S11300F00A94EAF780E090E0DBCF48B99B01082E30
S113010002C0220F331F0A94E2F720952BB92FEF78
S113011031EE54E0215030405040E1F700C000007F
S113012001968830910549F718B83196E430F10505
S113013029F40895E0E0F0E061E070E0462F0E2E2F
S113014001C0440F0A94EAF780E090E0D6CF84B16E
S11301508F6084B915B887B18F6087B918B88FEFED
S11301608AB98BB9EAE0F1E022E131E08193E21748
S1130170F307E1F708950E94A7000E945300FDCF02
S1130180E0E0F1E02AE031E081918BB94FEF89E6BC
S113019098E1415080409040E1F700C00000E21730
S11301A0F30791F708950E94BB000E94C000FDCFA1
S10701B0F894FFCFED
S10D01B4445FC84A5362704F404391
S9030000FC
