S013000061726475696E6F5F756E6F2E737265636E
S11300000C9440000C9460010C946B010C945D0002
S11300100C945D000C945D000C945D000C945D00E8
S11300200C945D000C945D000C945D000C945D00D8
S11300300C945D000C945D000C947D010C945D00A7
S11300400C945D000C945D000C945D000C945D00B8
S11300500C945D000C945D000C945D000C945D00A8
S11300600C945D000C945D0045464765666700206E
S11300702B2D2E3031323334353637383968000081
S113008011241FBECFEFD8E0DEBFCDBF11E0A0E04A
S1130090B1E0E0E9F0E102C005900D92AA32B107A7
S11300A0D9F721E0AAE2B1E001C01D92A234B2075F
S11300B0E1F70E947A010C9446080C940000ECE7E6
S11300C0F0E09081907F90839081892B80838FE1F1
S11300D093E00197F1F700C00000EAE7F0E08081C7
S11300E080648083808184FFFDCF8091780060915B
S11300F0790070E0762F6627680F711D6F5F7F4F60
S1130100CB01880F991F880F991F680F791F072E3D
S1130110000C880B990B0E946A0320E030E048EC45
S113012052E40E94F60320E030E040E85AE30E94E3
S1130130F60320E030E040E450E40E9454020E94C0
S11301403203CB010895ECE7F0E080818064808382
S1130150EAE7F0E08081876880838FE193E001978C
S1130160F1F700C0000008950E94A30060E875E262
S113017080E090E00E941A02CAE0D0E00F2EF4E67C
S1130180EF2EF12CF02D04E111E082E00E945F00DB
S1130190BC01990F880B990B0E946A0320E030E0A0
S11301A048EC52E40E94C0022CE53FE842E45EE3DE
S11301B00E9453029B01AC016AE979E98DEB91E459
S11301C00E94C0020E9432039B01CB01BE010E9427
S11301D07B059F938F93CB01BE010E947B059F9368
S11301E08F93C901B7010E947B05CB01BE010E9418
S11301F07B059F938F931F930F930E948E062FEF7F
S113020089E698E1215080409040E1F700C0000069
S11302108DB79EB708960FB6F8949EBF0FBE8DBFDC
S1130220B4CF0F931F93CF93DF938C01262FCAE291
S1130230D1E0EAE0F0E0BF010E947B05CB01BF0101
S11302400E947B05DC01A65FBE4F8C918883C801A8
S113025064E670E00E947B05CB01BF010E947B0530
S1130260FC01E65FFE4F808189838DEC289FE12DA0
S11302701124E695E695E6953E2F330F932F990FBB
S1130280990F930F291BA22FB0E0A65FBE4F9C913C
S11302909B7F9A83E89F812D112486958695869568
S11302A0880F982F990F990F890FE81BF0E0E65FEC
S11302B0FE4F80818B83DF91CF911F910F91089521
S11302C01F920F920FB60F92112416BC0F900FBEFF
S11302D00F901F9018951F920F920FB60F92112432
S11302E08F9386B580932E018F910F900FBE0F9040
S11302F01F9018950E94B400FFCF1F920F920FB663
S11303000F9211242F933F934F935F936F937F9397
S11303108F939F93AF93BF93EF93FF938091370194
S1130320882349F080912F01909130010196909398
S1130330300180932F0180912F0190913001883EEC
S11303409340D4F01092300110922F018091340127
S11303508F5F80933401809134018C3368F0109264
S11303603401809133018F5F809333018091330195
S11303708C3310F01092330180912F019091300151
S11303806AE070E00E947B05892B39F48091360184
S1130390882319F081E0809331018091350188230D
S11303A091F0109235016091340180912F01909168
S11303B030010E9411011092300110922F0110920D
S11303C0340110923301809132018F5F80933201A6
S11303D080913201843010F01092320185B1807F17
S11303E085B9E091320195B1F0E0EA5FFE4F80817A
S11303F0892B85B9E0913201F0E0E65DFE4F808102
S11304008BB9FF91EF91BF91AF919F918F917F91A4
S11304106F915F914F913F912F910F900FBE0F906D
S11304201F901895E0ECF0E0908195FFFDCF80934C
S1130430C6000895CF92DF92EF92FF926B017C0188
S113044060E070E082E192E00E940706E1ECF0E0F7
S1130450808188698083E2ECF0E08081866080831B
S113046060E472E48FE090E0A70196010E948F059A
S1130470DA01C9010197A109B109892F9A2FAB2F7C
S1130480BB278093C50021502093C4008091C600EF
S11304908FE99FE00197F1F700C00000FF90EF9013
S11304A0DF90CF9008955058BB27AA270E946B0273
S11304B00C94BC030E94AE0338F00E94B50320F0F4
S11304C039F49F3F19F426F40C94AB030EF4E09531
S11304D0E7FB0C94A503E92F0E94CD0358F3BA1748
S11304E0620773078407950720F079F4A6F50C9446
S11304F0EF030EF4E0950B2EBA2FA02D0B01B901DA
S113050090010C01CA01A0011124FF27591B99F085
S1130510593F50F4503E68F11A16F040A22F232F91
S1130520342F4427585FF3CF469537952795A795E1
S1130530F0405395C9F77EF41F16BA0B620B730B88
S1130540840BBAF09150A1F0FF0FBB1F661F771FF9
S1130550881FC2F70EC0BA0F621F731F841F48F4AE
S1130560879577956795B795F7959E3F08F0B0CF37
S11305709395880F08F09927EE0F9795879508951E
S11305800E94D4020C94BC030E94B50358F00E944C
S1130590AE0340F029F45F3F29F00C94A5035111F8
S11305A00C94F0030C94AB030E94CD0368F39923DD
S11305B0B1F3552391F3951B550BBB27AA2762175B
S11305C07307840738F09F5F5F4F220F331F441F68
S11305D0AA1FA9F335D00E2E3AF0E0E832D091509C
S11305E05040E695001CCAF72BD0FE2F29D0660F89
S11305F0771F881FBB1F261737074807AB07B0E8CC
S113060009F0BB0B802DBF01FF2793585F4F3AF0D1
S11306109E3F510578F00C94A5030C94F0035F3FC2
S1130620E4F3983ED4F3869577956795B795F79557
S11306309F5FC9F7880F911D9695879597F908953F
S1130640E1E0660F771F881FBB1F621773078407DB
S1130650BA0720F0621B730B840BBA0BEE1F88F7EA
S1130660E09508950E9439036894B1110C94F00345
S113067008950E94D50388F09F5798F0B92F9927C1
S1130680B751B0F0E1F0660F771F881F991F1AF079
S1130690BA95C9F714C0B13091F00E94EF03B1E0EC
S11306A008950C94EF03672F782F8827B85F39F0EB
S11306B0B93FCCF3869577956795B395D9F73EF412
S11306C090958095709561957F4F8F4F9F4F0895BA
S11306D0E89409C097FB3EF49095809570956195D8
S11306E07F4F8F4F9F4F9923A9F0F92F96E9BB278E
S11306F09395F695879577956795B795F111F8CF0A
S1130700FAF4BB0F11F460FF1BC06F5F7F4F8F4F74
S11307109F4F16C0882311F096E911C0772321F06A
S11307209EE8872F762F05C0662371F096E8862F02
S113073070E060E02AF09A95660F771F881FDAF759
S1130740880F9695879597F9089597F99F6780E89C
S113075070E060E008959FEF80EC089500240A940F
S11307601616170618060906089500240A94121688
S11307701306140605060895092E0394000C11F4BB
S1130780882352F0BB0F40F4BF2B11F460FF04C068
S11307906F5F7F4F8F4F9F4F089557FD9058440FC1
S11307A0551F59F05F3F71F04795880F97FB991FCC
S11307B061F09F3F79F08795089512161306140689
S11307C0551FF2CF4695F1DF08C016161706180616
S11307D0991FF1CF86957105610508940895E894F1
S11307E0BB2766277727CB0197F908950E94090450
S11307F00C94BC030E94AE0338F00E94B50320F0B1
S1130800952311F00C94A5030C94AB0311240C94C0
S1130810F0030E94CD0370F3959FC1F3950F50E050
S1130820551F629FF001729FBB27F00DB11D639F9E
S1130830AA27F00DB11DAA1F649F6627B00DA11D44
S1130840661F829F2227B00DA11D621F739FB00DEA
S1130850A11D621F839FA00D611D221F749F33275A
S1130860A00D611D231F849F600D211D822F762FF3
S11308706A2F11249F5750409AF0F1F088234AF0D0
S1130880EE0FFF1FBB1F661F771F881F915050403C
S1130890A9F79E3F510580F00C94A5030C94F00336
S11308A05F3FE4F3983ED4F3869577956795B795C3
S11308B0F795E7959F5FC1F7FE2B880F911D9695DD
S11308C0879597F90895ABE0B0E0E9E6F4E00C947D
S11308D0B5056C017B013A01FC0117821682838104
S11308E081FF03C1CE0101964C01F601B380F701EB
S11308F0B3FC0591B3FE01917F01002309F4F1C01B
S1130900053249F4B3FC0591B3FE01917F01053230
S113091011F010E019C0B601802F90E00E94520639
S113092053013501E2CF002309F4DBC0602F70E0EE
S11309308FE690E00E94FC05892B49F0F701B3FC97
S11309400591B3FE01917F0117FFEDCF04C003327F
S113095039F00C3619F0011105C0C3C01068EECF90
S113096010E1ECCF602F70E088E690E00E94FC0577
S1130970892B41F05301F4E0AF0EB11CB6018FE3B3
S113098090E010C0033631F0033779F0033511F5E8
S113099011600BC0530182E0A80EB11CB601F30133
S11309A0808191810E945206BCCF5301F2E0AF0EC8
S11309B0B11CF30160807180F30110FD859110FF7B
S11309C081913F01882309F4ACCFB60190E00E94E5
S11309D05206F2CF043611F0093621F5530117FF00
S11309E009C0F4E0AF0EB11CF30160817181828112
S11309F093810AC0F2E0AF0EB11CF30160817181F2
S1130A00072E000C880B990B1F7E97FF08C090954A
S1130A108095709561957F4F8F4F9F4F10642AE0AA
S1130A2030E030C0003791F040F40835A1F00F36C3
S1130A3009F057C028E030E011C0053719F0083735
S1130A4031F04FC01F7E2AE030E008C0106114620C
S1130A5020E130E003C0146020E132E0530117FFCD
S1130A6009C0F4E0AF0EB11CF30160817181828191
S1130A70938108C0F2E0AF0EB11CF3016081718173
S1130A8080E090E0A4010E94A406082F081916FF34
S1130A9005C0B6018DE290E00E94520614FF15C015
S1130AA0FE01E00FF11D8081803379F0B60180E30F
S1130AB090E00E94520612FF08C01072812F90E04D
S1130AC0B601885A9F4F0E9452060150F401E00F6C
S1130AD0F11D8081B60190E00E9452060111F5CF0C
S1130AE020CFF6018681978102C08FEF9FEF2B966E
S1130AF0EEE00C94D10597FB072E16F4009407D072
S1130B0077FD09D00E94E80507FC05D03EF49095D6
S1130B1081959F4F0895709561957F4F0895A1E247
S1130B201A2EAA1BBB1BFD010DC0AA1FBB1FEE1F63
S1130B30FF1FA217B307E407F50720F0A21BB30BAE
S1130B40E40BF50B661F771F881F991F1A9469F72A
S1130B5060957095809590959B01AC01BD01CF0186
S1130B6008952F923F924F925F926F927F928F924D
S1130B709F92AF92BF92CF92DF92EF92FF920F9328
S1130B801F93CF93DF93CDB7DEB7CA1BDB0B0FB632
S1130B90F894DEBF0FBECDBF09942A8839884888EF
S1130BA05F846E847D848C849B84AA84B984C88485
S1130BB0DF80EE80FD800C811B81AA81B981CE0F7C
S1130BC0D11D0FB6F894DEBF0FBECDBFED01089561
S1130BD0AA1BBB1B51E107C0AA1FBB1FA617B7075F
S1130BE010F0A61BB70B881F991F5A95A9F780957B
S1130BF09095BC01CD010895FC010590061621F0E5
S1130C000020D9F7C00108953197CF0108950F93BB
S1130C101F93CF93DF93009731F46115710519F495
S1130C2080E090E03AC08B01EC016EE070E081E07E
S1130C3090E00E940207FC01892B91F380E88383F2
S1130C400115110571F01387028781E88383809170
S1130C50380190913901892B21F4F0933901E09303
S1130C6038012097C9F0D187C0878381826083834C
S1130C7080913A0190913B01892B71F4F0933B01EF
S1130C80E0933A0180913C0190913D01892B21F43C
S1130C90F0933D01E0933C01CF01DF91CF911F918F
S1130CA00F9108950F931F93CF93DF93FB0123813B
S1130CB021FD03C08FEF9FEF2CC022FF16C0468199
S1130CC05781248135814217530744F4A081B181AF
S1130CD09D012F5F3F4F318320838C932681378181
S1130CE02F5F3F4F3783268314C08B01EC01FB0138
S1130CF00084F185E02D0995892BE1F6D80116963B
S1130D008D919C911797019617969C938E931697A5
S1130D10CE01DF91CF911F910F910895A0E0B0E033
S1130D20E4E9F6E00C94C105AE014B5F5F4FFA01B4
S1130D3061917191AF0180913A0190913B010E94C0
S1130D406304E2E00C94DD05FA01AA27283051F18E
S1130D50203181F1E8946F936E7F6E5F7F4F8F4FE8
S1130D609F4FAF4FB1E03ED0B4E03CD0670F781F47
S1130D70891F9A1FA11D680F791F8A1F911DA11D2C
S1130D806A0F711D811D911DA11D20D009F4689465
S1130D903F912AE0269F11243019305D3193DEF60D
S1130DA0CF010895462F4770405D4193B3E00FD0C3
S1130DB0C9F7F6CF462F4F70405D4A3318F0495DAE
S1130DC031FD4052419302D0A9F7EACFB4E0A69591
S1130DD09795879577956795BA95C9F700976105B3
S1130DE0710508959B01AC010A2E06945795479509
S1130DF037952795BA95C9F7620F731F841F951FFE
S1130E00A01D08950F931F93CF93DF93869F8001B6
S1130E10879F100D969F100D1124C8010E941E0774
S1130E20EC01009729F0A80160E070E00E943F08FF
S1130E30CE01DF91CF911F910F9108950F931F93CE
S1130E40CF93DF938230910510F482E090E0E0913B
S1130E504001F091410120E030E0A0E0B0E03097A3
S1130E6019F1408151810281138148175907C8F053
S1130E708417950769F4109731F012960C93129722
S1130E8013961C9327C0009340011093410122C084
S1130E902115310519F04217530718F49A01BD01C1
S1130EA0EF01DF01F801DBCF21153105F9F0281B33
S1130EB0390B2430310580F48A819B8161157105D9
S1130EC021F0FB019383828304C0909341018093BA
S1130ED04001FE01329644C0FE01E20FF31F8193EC
S1130EE0919322503109398328833AC020913E01DD
S1130EF030913F01232B41F42091020130910301F1
S1130F0030933F0120933E01209100013091010173
S1130F102115310541F42DB73EB74091040150919C
S1130F200501241B350BE0913E01F0913F01E217CE
S1130F30F307A0F42E1B3F0B2817390778F0AC01F8
S1130F404E5F5F4F2417350748F04E0F5F1F5093D5
S1130F503F0140933E018193919302C0E0E0F0E0B1
S1130F60CF01DF91CF911F910F910895CF93DF931C
S1130F70009709F481C0FC01329713821282A09178
S1130F804001B0914101109781F420813181820F99
S1130F90931F20913E0130913F012817390751F5E5
S1130FA0F0933F01E0933E0167C0ED0120E030E0A3
S1130FB0CE17DF0740F44A815B819E01411551053C
S1130FC0F1F0EA01F5CFD383C28340815181840FCC
S1130FD0951FC817D90759F488819981840F951FE3
S1130FE00296918380838A819B81938382832115D6
S1130FF0310529F4F0934101E09340013DC0E9013A
S1131000FB83EA8349915991C40FD51FEC17FD075F
S113101061F480819181840F951F0296E90199837F
S11310208883828193819B838A83E0E0F0E0129637
S11310308D919C911397009719F0FD01DC01F7CF76
S11310408D919C9111979D012E5F3F4F820F931FAD
S113105020913E0130913F012817390769F43097F8
S113106029F4109241011092400102C013821282AD
S1131070B0933F01A0933E01DF91CF910895DC012D
S113108001C06D9341505040E0F70895F894FFCFAC
S113109000004201200008020401057D46543C94EE
S11310A0A45D041C44697374616E6365203A202551
S10D10B0642E25642564200A000064
S9030000FC
