S013000061726475696E6F5F756E6F2E737265636E
S11300000C9440000C9435010C9440010C945D0058
S11300100C945D000C945D000C945D000C945D00E8
S11300200C945D000C945D000C945D000C945D00D8
S11300300C945D000C945D000C949D020C945D0086
S11300400C945D000C945D000C945D000C945D00B8
S11300500C945D000C945D000C945D000C945D00A8
S11300600C945D000C945D0045464765666700206E
S11300702B2D2E3031323334353637383968000081
S113008011241FBECFEFD8E0DEBFCDBF11E0A0E04A
S1130090B1E0ECEEF1E102C005900D92AA36B10791
S11300A0D9F721E0AAE6B1E001C01D92A238B20757
S11300B0E1F70E949E010C94F4080C940000ECE714
S11300C0F0E09081907F90839081892B80838FE1F1
S11300D093E00197F1F700C00000EAE7F0E08081C7
S11300E080648083808184FFFDCF8091780060915B
S11300F0790070E0762F6627680F711D6F5F7F4F60
S1130100072E000C880B990B0E94180420E030E0A5
S11301104AEF53E40E94A40420E030E040E85AE3AC
S11301200E94A40420E030E040E450E40E94740300
S11301300E94E003CB010895ECE7F0E08081806445
S11301408083EAE7F0E08081876880838FE193E031
S11301500197F1F700C00000089528E030E080E046
S11301601C9BFECF90EA9A95F1F7880F1C99816049
S11301701C99FECF2150310999F70895249A2C9A9D
S1130180089524980895249A2C9A2FEF8DE399E4E6
S1130190215080409040E1F700C0000008951C9970
S11301A0FECF1C9BFECF1C99FECF08952C982FEFF9
S11301B089EF90E0215080409040E1F700C00000BA
S11301C02C9A2AE12A95F1F700C008950F931F9302
S11301D0CF93DF938C01262FCAE6D1E0EAE0F0E06A
S11301E0BF010E942906CB01BF010E942906DC0140
S11301F0A65FBE4F8C918883C80164E670E00E94BC
S11302002906CB01BF010E942906FC01E65FFE4FCF
S1130210808189838DEC289FE12D1124E695E69554
S1130220E6953E2F330F932F990F990F930F291BA8
S1130230A22FB0E0A65FBE4F9C919B7F9A83E89F5C
S1130240812D1124869586958695880F982F990F70
S1130250990F890FE81BF0E0E65FFE4F80818B83E6
S1130260DF91CF911F910F9108951F920F920FB6B6
S11302700F92112416BC0F900FBE0F901F9018956B
S11302801F920F920FB60F9211248F9386B580930D
S11302906E018F910F900FBE0F901F9018958AB129
S11302A0806F8AB98BB1806F8BB984B1807F84B938
S11302B085B18F6085B90895189B08C0199B08C043
S11302C01A9B08C01B9B08C080E0089581E0089534
S11302D082E0089583E0089584E008950F931F93C6
S11302E0CF93DF93C0E0D0E000E810E08BB1806FE3
S11302F08BB99BB198010C2E02C0359527950A94B1
S1130300E2F7822F809589238BB985E08A95F1F7EE
S113031000000E945C01882339F00E945C018F5B1D
S1130320CC0FCC0F8C0F05C02196C430D105F1F64B
S113033081E4DF91CF911F910F9108950E94A10153
S1130340FFCF0E944F0160E875E280E090E00E94D8
S11303503A030E94C3000E949C00712C55245394BC
S1130360612CCAE0D0E00F2EF4E68F2E912CF02DF4
S11303700F2EF2E5AF2EF1E0BF2EF02D0F2EF7E396
S1130380CF2EF1E0DF2EF02D0F2EF3E2EF2EF1E071
S1130390FF2EF02D04E111E0772009F4C6C00E947D
S11303A06E018134C9F30E946E01823469F50E94A2
S11303B0D6000E94C1000E94CF000E94AD00782E9A
S11303C00E94AD00482E0E94AD000E94AD000E9424
S11303D0AD000E94BE001F924F921F927F921F9306
S11303E00F930E943C072FEF8DE399E42150804046
S11303F09040E1F700C000000F900F900F900F9015
S11304000F900F90762CC8CF0E946E018334B1F503
S11304100E94D6000E94C1000E94CF000E94AD003D
S11304200E94AD000E94AD00782E0E94AD00482EBF
S11304300E94AD000E94BE001F924F921F927F92B5
S1130440FF92EF920E943C0787E20E94320383E40A
S11304500E9432038AE00E9432032FEF8DE399E475
S1130460215080409040E1F700C000000F900F90B1
S11304700F900F900F900F90762C8ECF0E946E01EC
S1130480843439F5862D0E945F009C01BE010E94D0
S113049029069F938F93CB01BE010E9429069F9347
S11304A08F93C901B4010E942906CB01BE010E94A9
S11304B029069F938F93DF92CF920E943C078DB7BA
S11304C09EB708960FB6F8949EBF0FBE8DBF762CCC
S11304D063CF0E946E01853409F05ECF852D0E94A2
S11304E05F009C01BE010E9429069F938F93CB015C
S11304F0BE010E9429069F938F93C901B4010E94F3
S11305002906CB01BE010E9429069F938F93BF92B7
S1130510AF920E943C078DB79EB708960FB6F89429
S11305209EBF0FBE8DBF762C37CF0E946E01752CF7
S1130530813409F431CF762C2FCF1F920F920FB64E
S11305400F9211242F933F934F935F936F937F9355
S11305508F939F93AF93BF93EF93FF938091770112
S1130560882349F080916F019091700101969093D6
S1130570700180936F0180916F0190917001883EAA
S11305809340D4F01092700110926F018091740125
S11305908F5F80937401809174018C3368F01092A2
S11305A07401809173018F5F809373018091730153
S11305B08C3310F01092730180916F01909170014F
S11305C06AE070E00E942906892B39F48091760153
S11305D0882319F081E0809371018091750188234B
S11305E091F0109275016091740180916F01909166
S11305F070010E94E6001092700110926F01109237
S1130600740110927301809172018F5F8093720163
S113061080917201843010F01092720185B1807F54
S113062085B9E091720195B1F0E0EA5FFE4F8081F7
S1130630892B85B9E0917201F0E0E659FE4F808183
S11306408BB9FF91EF91BF91AF919F918F917F9162
S11306506F915F914F913F912F910F900FBE0F902B
S11306601F901895E0ECF0E0908195FFFDCF80930A
S1130670C6000895CF92DF92EF92FF926B017C0146
S113068060E070E082E393E00E94B506E1ECF0E004
S1130690808188698083E2ECF0E0808186608083D9
S11306A060E472E48FE090E0A70196010E943D06A9
S11306B0DA01C9010197A109B109892F9A2FAB2F3A
S11306C0BB278093C50021502093C4008091C600AD
S11306D08FE99FE00197F1F700C00000FF90EF90D1
S11306E0DF90CF9008955058BB27AA270E948B0310
S11306F00C946A040E945C0438F00E94630420F0A5
S113070039F49F3F19F426F40C9459040EF4E0953F
S1130710E7FB0C945304E92F0E947B0458F3BA17A7
S1130720620773078407950720F079F4A6F50C9403
S11307309D040EF4E0950B2EBA2FA02D0B01B901E8
S113074090010C01CA01A0011124FF27591B99F043
S1130750593F50F4503E68F11A16F040A22F232F4F
S1130760342F4427585FF3CF469537952795A7959F
S1130770F0405395C9F77EF41F16BA0B620B730B46
S1130780840BBAF09150A1F0FF0FBB1F661F771FB7
S1130790881FC2F70EC0BA0F621F731F841F48F46C
S11307A0879577956795B795F7959E3F08F0B0CFF5
S11307B09395880F08F09927EE0F979587950895DC
S11307C00E94E7036894B1110C949E0408950E945A
S11307D0830488F09F5798F0B92F9927B751B0F048
S11307E0E1F0660F771F881F991F1AF0BA95C9F7B1
S11307F014C0B13091F00E949D04B1E008950C94AE
S11308009D04672F782F8827B85F39F0B93FCCF360
S1130810869577956795B395D9F73EF4909580952D
S1130820709561957F4F8F4F9F4F0895E89409C04D
S113083097FB3EF490958095709561957F4F8F4F0F
S11308409F4F9923A9F0F92F96E9BB279395F69525
S1130850879577956795B795F111F8CFFAF4BB0FA3
S113086011F460FF1BC06F5F7F4F8F4F9F4F16C007
S1130870882311F096E911C0772321F09EE8872F91
S1130880762F05C0662371F096E8862F70E060E04D
S11308902AF09A95660F771F881FDAF7880F9695C6
S11308A0879597F9089597F99F6780E870E060E06D
S11308B008959FEF80EC089500240A9416161706F5
S11308C018060906089500240A941216130614063D
S11308D005060895092E0394000C11F4882352F0A0
S11308E0BB0F40F4BF2B11F460FF04C06F5F7F4F58
S11308F08F4F9F4F089557FD9058440F551F59F03F
S11309005F3F71F04795880F97FB991F61F09F3FF8
S113091079F087950895121613061406551FF2CF21
S11309204695F1DF08C0161617061806991FF1CF71
S113093086957105610508940895E894BB27662798
S11309407727CB0197F908950E94B7040C946A04A1
S11309500E945C0438F00E94630420F0952311F097
S11309600C9453040C94590411240C949E040E9476
S11309707B0470F3959FC1F3950F50E0551F629F60
S1130980F001729FBB27F00DB11D639FAA27F00DE4
S1130990B11DAA1F649F6627B00DA11D661F829F0B
S11309A02227B00DA11D621F739FB00DA11D621FF0
S11309B0839FA00D611D221F749F3327A00D611D0D
S11309C0231F849F600D211D822F762F6A2F1124EF
S11309D09F5750409AF0F1F088234AF0EE0FFF1F22
S11309E0BB1F661F771F881F91505040A9F79E3F79
S11309F0510580F00C9453040C949E045F3FE4F37F
S1130A00983ED4F3869577956795B795F795E795CE
S1130A109F5FC1F7FE2B880F911D9695879597F9D7
S1130A200895ABE0B0E0E7E1F5E00C9463066C01F7
S1130A307B013A01FC0117821682838181FF03C185
S1130A40CE0101964C01F601B380F701B3FC059188
S1130A50B3FE01917F01002309F4F1C0053249F48A
S1130A60B3FC0591B3FE01917F01053211F010E052
S1130A7019C0B601802F90E00E9400075301350190
S1130A80E2CF002309F4DBC0602F70E08FE690E032
S1130A900E94AA06892B49F0F701B3FC0591B3FE25
S1130AA001917F0117FFEDCF04C0033239F00C36FA
S1130AB019F0011105C0C3C01068EECF10E1ECCFEE
S1130AC0602F70E088E690E00E94AA06892B41F02E
S1130AD05301F4E0AF0EB11CB6018FE390E010C0F7
S1130AE0033631F0033779F0033511F511600BC08B
S1130AF0530182E0A80EB11CB601F30180819181FB
S1130B000E940007BCCF5301F2E0AF0EB11CF30109
S1130B1060807180F30110FD859110FF81913F0188
S1130B20882309F4ACCFB60190E00E940007F2CF0D
S1130B30043611F0093621F5530117FF09C0F4E01A
S1130B40AF0EB11CF30160817181828193810AC06F
S1130B50F2E0AF0EB11CF30160817181072E000C2D
S1130B60880B990B1F7E97FF08C090958095709510
S1130B7061957F4F8F4F9F4F10642AE030E030C063
S1130B80003791F040F40835A1F00F3609F057C052
S1130B9028E030E011C0053719F0083731F04FC0B4
S1130BA01F7E2AE030E008C01061146220E130E0CA
S1130BB003C0146020E132E0530117FF09C0F4E0E0
S1130BC0AF0EB11CF301608171818281938108C0F1
S1130BD0F2E0AF0EB11CF3016081718180E090E01E
S1130BE0A4010E945207082F081916FF05C0B60178
S1130BF08DE290E00E94000714FF15C0FE01E00F93
S1130C00F11D8081803379F0B60180E390E00E9489
S1130C10000712FF08C01072812F90E0B601885AB5
S1130C209F4F0E9400070150F401E00FF11D8081E5
S1130C30B60190E00E9400070111F5CF20CFF60124
S1130C408681978102C08FEF9FEF2B96EEE00C9484
S1130C507F0697FB072E16F4009407D077FD09D082
S1130C600E94960607FC05D03EF4909581959F4F0F
S1130C700895709561957F4F0895A1E21A2EAA1BDD
S1130C80BB1BFD010DC0AA1FBB1FEE1FFF1FA21738
S1130C90B307E407F50720F0A21BB30BE40BF50B35
S1130CA0661F771F881F991F1A9469F760957095BE
S1130CB0809590959B01AC01BD01CF0108952F92C1
S1130CC03F924F925F926F927F928F929F92AF92D8
S1130CD0BF92CF92DF92EF92FF920F931F93CF9325
S1130CE0DF93CDB7DEB7CA1BDB0B0FB6F894DEBFBC
S1130CF00FBECDBF09942A88398848885F846E84E2
S1130D007D848C849B84AA84B984C884DF80EE802B
S1130D10FD800C811B81AA81B981CE0FD11D0FB634
S1130D20F894DEBF0FBECDBFED010895AA1BBB1B17
S1130D3051E107C0AA1FBB1FA617B70710F0A61BD7
S1130D40B70B881F991F5A95A9F780959095BC01F8
S1130D50CD010895FC010590061621F00020D9F775
S1130D60C00108953197CF0108950F931F93CF9336
S1130D70DF93009731F46115710519F480E090E078
S1130D803AC08B01EC016EE070E081E090E00E94DB
S1130D90B007FC01892B91F380E8838301151105C9
S1130DA071F01387028781E88383809178019091A1
S1130DB07901892B21F4F0937901E093780120974C
S1130DC0C9F0D187C08783818260838380917A014F
S1130DD090917B01892B71F4F0937B01E0937A016C
S1130DE080917C0190917D01892B21F4F0937D0108
S1130DF0E0937C01CF01DF91CF911F910F91089572
S1130E000F931F93CF93DF93FB01238121FD03C035
S1130E108FEF9FEF2CC022FF16C04681578124819B
S1130E2035814217530744F4A081B1819D012F5F9E
S1130E303F4F318320838C93268137812F5F3F4F2F
S1130E403783268314C08B01EC01FB010084F185F8
S1130E50E02D0995892BE1F6D80116968D919C9188
S1130E601797019617969C938E931697CE01DF9150
S1130E70CF911F910F910895A0E0B0E0E2E4F7E074
S1130E800C946F06AE014B5F5F4FFA016191719153
S1130E90AF0180917A0190917B010E941105E2E0FB
S1130EA00C948B06FA01AA27283051F1203181F1E4
S1130EB0E8946F936E7F6E5F7F4F8F4F9F4FAF4F5E
S1130EC0B1E03ED0B4E03CD0670F781F891F9A1F71
S1130ED0A11D680F791F8A1F911DA11D6A0F711D25
S1130EE0811D911DA11D20D009F468943F912AE031
S1130EF0269F11243019305D3193DEF6CF01089519
S1130F00462F4770405D4193B3E00FD0C9F7F6CF49
S1130F10462F4F70405D4A3318F0495D31FD405211
S1130F20419302D0A9F7EACFB4E0A69597958795A7
S1130F3077956795BA95C9F7009761057105089586
S1130F409B01AC010A2E0694579547953795279532
S1130F50BA95C9F7620F731F841F951FA01D0895CA
S1130F600F931F93CF93DF93869F8001879F100D6C
S1130F70969F100D1124C8010E94CC07EC01009724
S1130F8029F0A80160E070E00E94ED08CE01DF9135
S1130F90CF911F910F9108950F931F93CF93DF93D8
S1130FA08230910510F482E090E0E0918001F091AC
S1130FB0810120E030E0A0E0B0E0309719F14081F9
S1130FC051810281138148175907C8F08417950786
S1130FD069F4109731F012960C93129713961C93A0
S1130FE027C0009380011093810122C0211531058F
S1130FF019F04217530718F49A01BD01EF01DF01FC
S1131000F801DBCF21153105F9F0281B390B243009
S1131010310580F48A819B816115710521F0FB0102
S11310209383828304C09093810180938001FE01A5
S1131030329644C0FE01E20FF31F81939193225034
S11310403109398328833AC020917E0130917F0190
S1131050232B41F4209102013091030130937F014D
S113106020937E0120910001309101012115310569
S113107041F42DB73EB74091040150910501241B62
S1131080350BE0917E01F0917F01E217F307A0F4A4
S11310902E1B3F0B2817390778F0AC014E5F5F4FCA
S11310A02417350748F04E0F5F1F50937F0140937C
S11310B07E018193919302C0E0E0F0E0CF01DF91E3
S11310C0CF911F910F910895CF93DF93009709F467
S11310D081C0FC01329713821282A0918001B091E9
S11310E08101109781F420813181820F931F209117
S11310F07E0130917F012817390751F5F0937F0164
S1131100E0937E0167C0ED0120E030E0CE17DF07F9
S113111040F44A815B819E0141155105F1F0EA01D9
S1131120F5CFD383C28340815181840F951FC817A3
S1131130D90759F488819981840F951F0296918368
S113114080838A819B81938382832115310529F4CD
S1131150F0938101E09380013DC0E901FB83EA83C0
S113116049915991C40FD51FEC17FD0761F4808193
S11311709181840F951F0296E90199838883828166
S113118093819B838A83E0E0F0E012968D919C9199
S11311901397009719F0FD01DC01F7CF8D919C9115
S11311A011979D012E5F3F4F820F931F20917E0167
S11311B030917F012817390769F4309729F4109288
S11311C081011092800102C013821282B0937F01C8
S11311D0A0937E01DF91CF910895DC0101C06D934E
S10F11E041505040E0F70895F894FFCF10
S11311EC00008201200008020401057D46543C9451
S11311FCA45D041C5248203A2025642E2564252520
S113120C200A0054656D7065726174757265203ABC
S113121C2025642E256400506F74656E74696F6D9F
S113122C65746572203A2025642E25642564562045
S113123C0A004344532076616C7565203A2025647A
S10D124C2E2564256456200A0000D4
S9030000FC
