S013000061726475696E6F5F756E6F2E737265636E
S11300000C9440000C94AE000C94B9000C945D0068
S11300100C945D000C945D000C945D000C945D00E8
S11300200C945D000C945D000C945D000C945D00D8
S11300300C945D000C945D000C9413010C945D0011
S11300400C945D000C945D000C945D000C945D00B8
S11300500C945D000C945D000C945D000C945D00A8
S11300600C945D000C945D0045464765666700206E
S11300702B2D2E3031323334353637383968000081
S113008011241FBECFEFD8E0DEBFCDBF11E0A0E04A
S1130090B1E0EEEAFBE002C005900D92A632B10792
S11300A0D9F721E0A6E2B1E001C01D92AE33B20758
S11300B0E1F70E9410010C94D5050C9400000F93F5
S11300C01F93CF93DF938C01262FC6E2D1E0EAE0A1
S11300D0F0E0BF010E940A03CB01BF010E940A03A2
S11300E0DC01A65FBE4F8C918883C80164E670E092
S11300F00E940A03CB01BF010E940A03FC01E65FD0
S1130100FE4F808189838DEC289FE12D1124E69593
S1130110E695E6953E2F330F932F990F990F930F82
S1130120291BA22FB0E0A65FBE4F9C919B7F9A83B0
S1130130E89F812D1124869586958695880F982FA2
S1130140990F990F890FE81BF0E0E65FFE4F80815D
S11301508B83DF91CF911F910F9108951F920F927E
S11301600FB60F92112416BC0F900FBE0F901F9064
S113017018951F920F920FB60F9211248F9386B584
S113018080932A018F910F900FBE0F901F901895A6
S1130190249A2C9808952C9A85E38A95F1F7000007
S11301A02C9808950E94C800E9E6F0E080818B60F5
S11301B080838DB383608DBB0E94A80160E875E2E3
S11301C080E090E00E94B90178940BE310E0C4E170
S11301D0D1E00E94CB002FEF83ED90E321508040CB
S11301E09040E1F700C0000080912A0190E0019660
S11301F00024969587950794969587950794982F4C
S1130200802DB8010E940A0377277F936F93DF93B1
S1130210CF930E941D040F900F900F900F90D9CF91
S11302200E94D200FFCF1F920F920FB60F9211249B
S11302302F933F934F935F936F937F938F939F93EA
S1130240AF93BF93EF93FF9380913301882349F0D9
S113025080912B0190912C01019690932C01809315
S11302602B0180912B0190912C01883E9340D4F076
S113027010922C0110922B01809130018F5F80939A
S11302803001809130018C3368F0109230018091FC
S11302902F018F5F80932F0180912F018C3310F0F9
S11302A010922F0180912B0190912C016AE070E053
S11302B00E940A03892B39F480913201882319F0B2
S11302C081E080932D0180913101882391F0109277
S11302D031016091300180912B0190912C010E9499
S11302E05F0010922C0110922B0110923001109299
S11302F02F0180912E018F5F80932E0180912E011A
S1130300843010F010922E0185B1807F85B9E09180
S11303102E0195B1F0E0EA5FFE4F8081892B85B90B
S1130320E0912E01F0E0EA5DFE4F80818BB9FF91F0
S1130330EF91BF91AF919F918F917F916F915F9159
S11303404F913F912F910F900FBE0F901F901895D2
S113035084B5826084BD85B5856085BD8FEF87BD1A
S11303600895E0ECF0E0908195FFFDCF8093C60006
S11303700895CF92DF92EF92FF926B017C0160E0CF
S113038070E081EB91E00E949603E1ECF0E0808163
S113039088698083E2ECF0E080818660808360E499
S11303A072E48FE090E0A70196010E941E03DA0137
S11303B0C9010197A109B109892F9A2FAB2FBB2736
S11303C08093C50021502093C4008091C6008FE91A
S11303D09FE00197F1F700C00000FF90EF90DF90DD
S11303E0CF900895ABE0B0E0E8EFF1E00C94440363
S11303F06C017B013A01FC0117821682838181FF23
S113040003C1CE0101964C01F601B380F701B3FCA0
S11304100591B3FE01917F01002309F4F1C0053277
S113042049F4B3FC0591B3FE01917F01053211F04B
S113043010E019C0B601802F90E00E94E10353013F
S11304403501E2CF002309F4DBC0602F70E08FE6B2
S113045090E00E948B03892B49F0F701B3FC0591CE
S1130460B3FE01917F0117FFEDCF04C0033239F0D1
S11304700C3619F0011105C0C3C01068EECF10E1AD
S1130480ECCF602F70E088E690E00E948B03892B0C
S113049041F05301F4E0AF0EB11CB6018FE390E0DC
S11304A010C0033631F0033779F0033511F51160CC
S11304B00BC0530182E0A80EB11CB601F301808188
S11304C091810E94E103BCCF5301F2E0AF0EB11C55
S11304D0F30160807180F30110FD859110FF81911B
S11304E03F01882309F4ACCFB60190E00E94E103F8
S11304F0F2CF043611F0093621F5530117FF09C074
S1130500F4E0AF0EB11CF3016081718182819381AB
S11305100AC0F2E0AF0EB11CF30160817181072EB5
S1130520000C880B990B1F7E97FF08C0909580954F
S1130530709561957F4F8F4F9F4F10642AE030E094
S113054030C0003791F040F40835A1F00F3609F0BF
S113055057C028E030E011C0053719F0083731F0F2
S11305604FC01F7E2AE030E008C01061146220E111
S113057030E003C0146020E132E0530117FF09C0EA
S1130580F4E0AF0EB11CF30160817181828193812B
S113059008C0F2E0AF0EB11CF3016081718180E00C
S11305A090E0A4010E943304082F081916FF05C027
S11305B0B6018DE290E00E94E10314FF15C0FE0134
S11305C0E00FF11D8081803379F0B60180E390E083
S11305D00E94E10312FF08C01072812F90E0B6015F
S11305E0885A9F4F0E94E1030150F401E00FF11D6E
S11305F08081B60190E00E94E1030111F5CF20CF84
S1130600F6018681978102C08FEF9FEF2B96EEE073
S11306100C94600397FB072E16F4009407D077FD23
S113062009D00E94770307FC05D03EF4909581958C
S11306309F4F0895709561957F4F0895A1E21A2EFA
S1130640AA1BBB1BFD010DC0AA1FBB1FEE1FFF1F72
S1130650A217B307E407F50720F0A21BB30BE40BC2
S1130660F50B661F771F881F991F1A9469F7609509
S11306707095809590959B01AC01BD01CF010895C3
S11306802F923F924F925F926F927F928F929F929E
S1130690AF92BF92CF92DF92EF92FF920F931F938C
S11306A0CF93DF93CDB7DEB7CA1BDB0B0FB6F8943D
S11306B0DEBF0FBECDBF09942A88398848885F847D
S11306C06E847D848C849B84AA84B984C884DF80EE
S11306D0EE80FD800C811B81AA81B981CE0FD11DD2
S11306E00FB6F894DEBF0FBECDBFED010895AA1B6F
S11306F0BB1B51E107C0AA1FBB1FA617B70710F009
S1130700A61BB70B881F991F5A95A9F7809590953A
S1130710BC01CD010895FC010590061621F00020CE
S1130720D9F7C00108953197CF0108950F931F930E
S1130730CF93DF93009731F46115710519F480E0CC
S113074090E03AC08B01EC016EE070E081E090E053
S11307500E949104FC01892B91F380E883830115A5
S1130760110571F01387028781E883838091340136
S113077090913501892B21F4F0933501E0933401F4
S11307802097C9F0D187C087838182608383809159
S1130790360190913701892B71F4F0933701E0937E
S11307A036018091380190913901892B21F4F0931D
S11307B03901E0933801CF01DF91CF911F910F915F
S11307C008950F931F93CF93DF93FB01238121FDA2
S11307D003C08FEF9FEF2CC022FF16C046815781C4
S11307E0248135814217530744F4A081B1819D01CE
S11307F02F5F3F4F318320838C93268137812F5F76
S11308003F4F3783268314C08B01EC01FB01008426
S1130810F185E02D0995892BE1F6D80116968D9185
S11308209C911797019617969C938E931697CE01D9
S1130830DF91CF911F910F910895A0E0B0E0E3E222
S1130840F4E00C945003AE014B5F5F4FFA016191E9
S11308507191AF0180913601909137010E94F201AC
S1130860E2E00C946C03FA01AA27283051F12031FC
S113087081F1E8946F936E7F6E5F7F4F8F4F9F4F30
S1130880AF4FB1E03ED0B4E03CD0670F781F891F72
S11308909A1FA11D680F791F8A1F911DA11D6A0F40
S11308A0711D811D911DA11D20D009F468943F91F3
S11308B02AE0269F11243019305D3193DEF6CF01F2
S11308C00895462F4770405D4193B3E00FD0C9F7B8
S11308D0F6CF462F4F70405D4A3318F0495D31FD25
S11308E04052419302D0A9F7EACFB4E0A695979578
S11308F0879577956795BA95C9F70097610571054E
S113090008959B01AC010A2E069457954795379597
S11309102795BA95C9F7620F731F841F951FA01DF1
S113092008950F931F93CF93DF93869F8001879F32
S1130930100D969F100D1124C8010E94AD04EC0106
S1130940009729F0A80160E070E00E94CE05CE0176
S1130950DF91CF911F910F9108950F931F93CF9320
S1130960DF938230910510F482E090E0E0913C0145
S1130970F0913D0120E030E0A0E0B0E0309719F1C3
S1130980408151810281138148175907C8F08417A7
S1130990950769F4109731F012960C9312971396F9
S11309A01C9327C000933C0110933D0122C02115E4
S11309B0310519F04217530718F49A01BD01EF01EC
S11309C0DF01F801DBCF21153105F9F0281B390BC4
S11309D02430310580F48A819B816115710521F0F1
S11309E0FB019383828304C090933D0180933C0177
S11309F0FE01329644C0FE01E20FF31F81939193EE
S1130A0022503109398328833AC020913A01309128
S1130A103B01232B41F420910201309103013093D7
S1130A203B0120933A0120910001309101012115ED
S1130A30310541F42DB73EB74091040150910501B1
S1130A40241B350BE0913A01F0913B01E217F307C7
S1130A50A0F42E1B3F0B2817390778F0AC014E5F2A
S1130A605F4F2417350748F04E0F5F1F50933B012B
S1130A7040933A018193919302C0E0E0F0E0CF010A
S1130A80DF91CF911F910F910895CF93DF9300973A
S1130A9009F481C0FC01329713821282A0913C01B7
S1130AA0B0913D01109781F420813181820F931F11
S1130AB020913A0130913B012817390751F5F09301
S1130AC03B01E0933A0167C0ED0120E030E0CE172E
S1130AD0DF0740F44A815B819E0141155105F1F025
S1130AE0EA01F5CFD383C28340815181840F951FDE
S1130AF0C817D90759F488819981840F951F0296E4
S1130B00918380838A819B8193838283211531051C
S1130B1029F4F0933D01E0933C013DC0E901FB83DE
S1130B20EA8349915991C40FD51FEC17FD0761F46D
S1130B3080819181840F951F0296E90199838883AE
S1130B40828193819B838A83E0E0F0E012968D9109
S1130B509C911397009719F0FD01DC01F7CF8D915B
S1130B609C9111979D012E5F3F4F820F931F2091FF
S1130B703A0130913B012817390769F4309729F479
S1130B8010923D0110923C0102C013821282B09374
S1130B903B01A0933A01DF91CF910895DC0101C09C
S1110BA06D9341505040E0F70895F894FFCF54
S1130BAE00003E01200008020401057D46543C94D9
S1130BBEA45D041C2064697374616E6365203A201D
S1090BCE2564200A00006A
S9030000FC
