:100000000C9440000C9459010C9464010C945D0014
:100010000C945D000C945D000C945D000C945D00EC
:100020000C945D000C945D000C945D000C945D00DC
:100030000C945D000C945D000C9477010C945D00B1
:100040000C945D000C945D000C945D000C945D00BC
:100050000C945D000C945D000C945D000C945D00AC
:100060000C945D000C945D00454647656667002072
:100070002B2D2E3031323334353637383968000085
:1000800011241FBECFEFD8E0DEBFCDBF11E0A0E04E
:10009000B1E0EAE8F9E002C005900D92A031B107A5
:1000A000D9F721E0A0E1B1E001C01D92A132B20771
:1000B000E1F70E9473010C94C3040C94000048E023
:1000C00050E080E00AC095E09A95F1F700002F5FBC
:1000D0003F4F283C310519F425C020E030E01C9B3F
:1000E000F2CF283C310504F590EA9A95F1F7880F94
:1000F0001C9B0DC081600BC095E09A95F1F7000044
:100100002F5F3F4F203D97E0390719F40DC020E0E5
:1001100030E01C99F1CF283C310534F441505109AD
:10012000E1F608958FEF08958FEF0895249A2C9AA1
:10013000089524980895249A2C9A2FEF8DE399E43A
:10014000215080409040E1F700C00000089588EC05
:1001500090E006C025E02A95F1F70000019751F0E4
:100160001C99F8CF07C025E02A95F1F70000019708
:1001700019F40CC088EC90E01C9BF5CF07C025E07B
:100180002A95F1F70000019719F4089588EC90E0A2
:100190001C99F5CF08952C982FEF89EF90E021500E
:1001A00080409040E1F700C000002C9A2AE12A9597
:1001B000F1F700C00895CF930E94CB000E949900F0
:1001C0000E94A7000E945F000E945F000E945F00E3
:1001D000C82F0E945F000E945F000E9496008C2F33
:1001E000CF910895CF93DF93EC01E0E1F1E02AE0B5
:1001F00030E0B9010E94BF03DC01AC5FBE4F8C91BF
:100200008083CB01B9010E94BF03DC01AC5FBE4F0C
:100210008C918183CE0164E670E00E94BF03CB0124
:10022000B9010E94BF03DC01AC5FBE4F8C91828399
:10023000CE0168EE73E00E94BF03CB01B9010E94BA
:10024000BF03DC01AC5FBE4F8C918383DF91CF9104
:1002500008958AB1806F8AB98BB18F708BB987B1DD
:10026000886387B9449A80E090E00E94F200089584
:10027000449840E050E0682F70E04598439898B16A
:100280009B01042E02C0359527950A94E2F7217050
:100290003327220F331F220F331F220F331F292B27
:1002A00028B9459A4F5F5F4F4830510531F7449A5E
:1002B00008951F920F920FB60F92112416BC0F9043
:1002C0000FBE0F901F9018951F920F920FB60F92AE
:1002D00011248F9386B5809314018F910F900FBED8
:1002E0000F901F9018950E941E027894FFCF1F92C6
:1002F0000F920FB60F9211242F933F934F935F935A
:100300006F937F938F939F93AF93BF93EF93FF93DD
:1003100080910E01882349F0809116019091170178
:100320000196909317018093160180911601909188
:100330001701883E9340D4F01092170110921601D5
:1003400080911D018F5F80931D0180911D018C3371
:1003500068F010921D0180911B018F5F80931B013B
:1003600080911B018C3310F010921B0180911A01B7
:100370008F5F80931A0180911A01843010F01092DF
:100380001A018BB18F708BB9E0911A01F0E0E05F38
:10039000FE4F80810E943801E0911A019BB1F0E08C
:1003A000E050FF4F8081892B8BB9FF91EF91BF9176
:1003B000AF919F918F917F916F915F914F913F91FD
:1003C0002F910F900FBE0F901F90189584B58260EB
:1003D00084BD85B5836085BD89EF87BDEEE6F0E01D
:1003E0008081826080830895239AE0EBF0E0808131
:1003F000836C8083E1EBF0E08081816080831092E8
:10040000B300089584B1866084B9E0E8F0E08081AB
:10041000826F8083E1E8F0E080818C6180831092BC
:1004200089001092880010928B0010928A008FEF42
:1004300090E0909387008093860008950E940202C6
:100440000E94F4010E94E6010E9429010E949B0083
:100450007894662463947724739401E010E0C0E0FC
:10046000D0E0E12CF12C81E0D12C44244394512C98
:100470000F2EFAE88F2E912CF02D0F2EF3EBAF2ECE
:10048000B12CF02D26C00E94DB00382E2FEF8217F2
:10049000C9F0C82ED12CC6010E94F200C601880FF7
:1004A000991F880F991F880F991F6BE070E00E94B9
:1004B000BF0362577F4FE8E8F0E071836083D32C7D
:1004C00080E007C08D2D90E088519C4F0E94F20083
:1004D00080E0662029F01C5F163930F0652C04C0DE
:1004E0001450642C09F0652C002349F0FFEFEF1A3B
:1004F000FF0A26E9E216F10454F0052D08C031E0A8
:10050000E31AF108042D1E141F040CF4052D7720A6
:1005100031F02296C639D10544F0752C06C02297D9
:10052000742C1C161D060CF4752CF401D183C083A9
:10053000F5011083FFEF26E731E0F1502040304015
:10054000E1F700C000008F5F883C18F29CCFABE061
:10055000B0E0EDEAF2E00C94D7036C017B013A01C4
:10056000FC0117821682838181FF03C1CE010196AF
:100570004C01F601B380F701B3FC0591B3FE019184
:100580007F01002309F4F1C0053249F4B3FC059161
:10059000B3FE01917F01053211F010E019C0B601E0
:1005A000802F90E00E94290453013501E2CF0023FF
:1005B00009F4DBC0602F70E08FE690E00E941E041B
:1005C000892B49F0F701B3FC0591B3FE01917F013E
:1005D00017FFEDCF04C0033239F00C3619F00111CA
:1005E00005C0C3C01068EECF10E1ECCF602F70E003
:1005F00088E690E00E941E04892B41F05301F4E04C
:10060000AF0EB11CB6018FE390E010C0033631F09D
:10061000033779F0033511F511600BC0530182E007
:10062000A80EB11CB601F301808191810E942904BA
:10063000BCCF5301F2E0AF0EB11CF30160807180BA
:10064000F30110FD859110FF81913F01882309F48A
:10065000ACCFB60190E00E942904F2CF043611F02D
:10066000093621F5530117FF09C0F4E0AF0EB11CA4
:10067000F30160817181828193810AC0F2E0AF0E43
:10068000B11CF30160817181072E000C880B990B5E
:100690001F7E97FF08C090958095709561957F4F5C
:1006A0008F4F9F4F10642AE030E030C0003791F048
:1006B00040F40835A1F00F3609F057C028E030E0CB
:1006C00011C0053719F0083731F04FC01F7E2AE0FE
:1006D00030E008C01061146220E130E003C0146013
:1006E00020E132E0530117FF09C0F4E0AF0EB11C66
:1006F000F301608171818281938108C0F2E0AF0EC5
:10070000B11CF3016081718180E090E0A4010E943E
:100710006504082F081916FF05C0B6018DE290E0A8
:100720000E94290414FF15C0FE01E00FF11D808115
:10073000803379F0B60180E390E00E94290412FF33
:1007400008C01072812F90E0B601885A9F4F0E9416
:1007500029040150F401E00FF11D8081B60190E001
:100760000E9429040111F5CF20CFF60186819781DF
:1007700002C08FEF9FEF2B96EEE00C94F30397FBF4
:10078000072E16F4009407D077FD09D00E940A04C2
:1007900007FC05D03EF4909581959F4F0895709584
:1007A00061957F4F08952F923F924F925F926F9283
:1007B0007F928F929F92AF92BF92CF92DF92EF92F1
:1007C000FF920F931F93CF93DF93CDB7DEB7CA1B72
:1007D000DB0B0FB6F894DEBF0FBECDBF09942A889D
:1007E000398848885F846E847D848C849B84AA8445
:1007F000B984C884DF80EE80FD800C811B81AA81D2
:10080000B981CE0FD11D0FB6F894DEBF0FBECDBF9C
:10081000ED010895AA1BBB1B51E107C0AA1FBB1F16
:10082000A617B70710F0A61BB70B881F991F5A957C
:10083000A9F780959095BC01CD010895FC01059024
:10084000061621F00020D9F7C00108953197CF0195
:1008500008950F931F93CF93DF93FB01238121FD15
:1008600003C08FEF9FEF2CC022FF16C04681578137
:10087000248135814217530744F4A081B1819D0141
:100880002F5F3F4F318320838C93268137812F5FE9
:100890003F4F3783268314C08B01EC01FB0100849A
:1008A000F185E02D0995892BE1F6D80116968D91F9
:1008B0009C911797019617969C938E931697CE014D
:1008C000DF91CF911F910F910895FA01AA27283047
:1008D00051F1203181F1E8946F936E7F6E5F7F4F0D
:1008E0008F4F9F4FAF4FB1E03ED0B4E03CD0670F89
:1008F000781F891F9A1FA11D680F791F8A1F911DDC
:10090000A11D6A0F711D811D911DA11D20D009F42B
:1009100068943F912AE0269F11243019305D31936D
:10092000DEF6CF010895462F4770405D4193B3E056
:100930000FD0C9F7F6CF462F4F70405D4A3318F0FD
:10094000495D31FD4052419302D0A9F7EACFB4E0AE
:10095000A6959795879577956795BA95C9F7009766
:100960006105710508959B01AC010A2E0694579507
:10097000479537952795BA95C9F7620F731F841F5E
:0A098000951FA01D0895F894FFCF05
:10098A0080102040A0BE622A3C2925BA20380100E6
:00000001FF
