S013000061726475696E6F5F756E6F2E737265636E
S11300000C9434000C9451000C9451000C94510045
S11300100C9451000C9451000C9451000C94510018
S11300200C9451000C9451000C9451000C94510008
S11300300C9451000C9451000C9451000C945100F8
S11300400C9451000C9451000C9451000C945100E8
S11300500C9451000C9451000C9451000C945100D8
S11300600C9451000C94510011241FBECFEFD8E022
S1130070DEBFCDBF11E0A0E0B1E0E4EBF2E002C0EE
S113008005900D92A831B107D9F721E0A8E1B1E0BC
S113009001C01D92AC31B207E1F70E942B010C9410
S11300A058010C940000E0E0F1E02AE031E0819195
S11300B08BB94FEF89E698E1415080409040E1F7D9
S11300C000C00000E217F30791F708950F931F9300
S11300D0CF93DF938C01262FC8E1D1E0EAE0F0E072
S11300E0BF010E943001CB01BF010E943001DC013D
S11300F0A25FBE4F8C918883C80164E670E00E94C1
S11301003001CB01BF010E943001FC01E25FFE4FD0
S1130110808189838DEC289FE12D1124E695E69555
S1130120E6953E2F330F932F990F990F930F291BA9
S1130130A22FB0E0A25FBE4F9C919B7F9A83E89F61
S1130140812D1124869586958695880F982F990F71
S1130150990F890FE81BF0E0E25FFE4F80818B83EB
S1130160DF91CF911F910F91089584B18F6084B96D
S113017085B1807F85B98AB18FEF8AB99BB18BB97C
S113018008950E94B50084B18F7C84B960E080E05A
S113019090E00E946600C12C00E011E0E12CF12CFB
S11301A0A12CD12CB12C99249394CEE0D1E011232D
S11301B0C1F01C9909C0011101C0092D892DC1107C
S11301C08B2DC82E1B2D13C01D9911C06D2DC70179
S11301D00E946600CB2C0B2D1B2DE12CF12CD12C75
S11301E028C01C9B04C013B115FB112710F9002370
S11301F001F188E0E80EF11C98EEE91693E0F906A7
S113020094F0D3948BE38D1540F4A3948A1540F4B1
S1130210E12CF12CA12CD12C06C0E12CF12C03C033
S1130220E12CF12CD12CCC2021F06D2DC7010E94A2
S11302306600EAE0F1E0A8E1B1E0819185B98D9131
S11302408BB98FE39FE10197F1F700C00000EC1731
S1130250FD0799F7ACCF0E94C1000E945300FDCF67
S113026097FB072E16F4009407D077FD09D00E945F
S1130270440107FC05D03EF4909581959F4F089565
S1130280709561957F4F0895AA1BBB1B51E107C070
S1130290AA1FBB1FA617B70710F0A61BB70B881F12
S11302A0991F5A95A9F780959095BC01CD010895A1
S10702B0F894FFCFEC
S11302B4445FC84A5362704F404308020401057DF9
S10B02C446543C94A45D041CA3
S9030000FC
