:100000000C9440000C942B010C9436010C945D0070
:100010000C945D000C945D000C945D000C945D00EC
:100020000C945D000C945D000C945D000C945D00DC
:100030000C945D000C945D000C9448010C945D00E0
:100040000C945D000C945D000C945D000C945D00BC
:100050000C945D000C945D000C945D000C945D00AC
:100060000C945D000C945D00454647656667002072
:100070002B2D2E3031323334353637383968000085
:1000800011241FBECFEFD8E0DEBFCDBF11E0A0E04E
:10009000B1E0E6E0FCE002C005900D92AC33B107A0
:1000A000D9F721E0ACE3B1E001C01D92A435B2075D
:1000B000E1F70E9445010C9401060C94000028E031
:1000C00030E080E01C9BFECF90EA9A95F1F7880F14
:1000D0001C9981601C99FECF2150310999F7089530
:1000E000249A2C9A089524980895249A2C9A2FEFF4
:1000F0008DE399E4215080409040E1F700C000007A
:1001000008951C99FECF1C9BFECF1C99FECF08952D
:100110002C982FEF89EF90E0215080409040E1F73C
:1001200000C000002C9A2AE12A95F1F700C008953A
:100130000E94750060E875E280E090E00E94E501B1
:1001400004E111E0C6E2D1E00E9488000E94730041
:100150000E9481000E945F00D82E0E945F00C82E7E
:100160000E945F00F82E0E945F00E82E0E945F0050
:100170000E9470002FEF8DE399E421508040904061
:10018000E1F700C000001F92CF921F92DF921F93F1
:100190000F930E9449041F92EF921F92FF92DF93E8
:1001A000CF930E9449048DB79EB70C960FB6F89472
:1001B0009EBF0FBE8DBFC8CF0F931F93CF93DF930A
:1001C0008C01262FCCE3D1E0EAE0F0E0BF010E94F1
:1001D0003603CB01BF010E943603DC01A65FBE4F90
:1001E0008C918883C80164E670E00E943603CB01DD
:1001F000BF010E943603FC01E65FFE4F80818983C8
:100200008DEC289FE12D1124E695E695E6953E2F8D
:10021000330F932F990F990F930F291BA22FB0E043
:10022000A65FBE4F9C919B7F9A83E89F812D1124EE
:10023000869586958695880F982F990F990F890F27
:10024000E81BF0E0E65FFE4F80818B83DF91CF916A
:100250001F910F9108951F920F920FB60F921124C4
:1002600016BC0F900FBE0F901F9018951F920F9203
:100270000FB60F9211248F9386B5809340018F9112
:100280000F900FBE0F901F9018950E949800FFCFFF
:100290001F920F920FB60F9211242F933F934F93FB
:1002A0005F936F937F938F939F93AF93BF93EF93DE
:1002B000FF9380914901882349F0809141019091F9
:1002C0004201019690934201809341018091410146
:1002D00090914201883E9340D4F0109242011092D6
:1002E0004101809146018F5F8093460180914601D4
:1002F0008C3368F010924601809145018F5F8093A6
:100300004501809145018C3310F010924501809198
:100310004101909142016AE070E00E943603892B0E
:1003200039F480914801882319F081E080934301DA
:1003300080914701882391F0109247016091460116
:1003400080914101909142010E94DC001092420193
:100350001092410110924601109245018091440192
:100360008F5F8093440180914401843010F010929B
:10037000440185B1807F85B9E091440195B1F0E0F9
:10038000EA5FFE4F8081892B85B9E0914401F0E05E
:10039000E45CFE4F80818BB9FF91EF91BF91AF91EB
:1003A0009F918F917F916F915F914F913F912F918D
:1003B0000F900FBE0F901F901895E0ECF0E0908129
:1003C00095FFFDCF8093C6000895CF92DF92EF9204
:1003D000FF926B017C0160E070E08DED91E00E9486
:1003E000C203E1ECF0E0808188698083E2ECF0E018
:1003F00080818660808360E472E48FE090E0A701F2
:1004000096010E944A03DA01C9010197A109B109C5
:10041000892F9A2FAB2FBB278093C50021502093A3
:10042000C4008091C6008FE99FE00197F1F700C0FA
:100430000000FF90EF90DF90CF900895ABE0B0E028
:10044000E4E2F2E00C9470036C017B013A01FC01E0
:1004500017821682838181FF03C1CE0101964C0170
:10046000F601B380F701B3FC0591B3FE01917F0162
:10047000002309F4F1C0053249F4B3FC0591B3FE41
:1004800001917F01053211F010E019C0B601802FF3
:1004900090E00E940D0453013501E2CF002309F4DE
:1004A000DBC0602F70E08FE690E00E94B703892BDD
:1004B00049F0F701B3FC0591B3FE01917F0117FFED
:1004C000EDCF04C0033239F00C3619F0011105C02C
:1004D000C3C01068EECF10E1ECCF602F70E088E66B
:1004E00090E00E94B703892B41F05301F4E0AF0E76
:1004F000B11CB6018FE390E010C0033631F0033732
:1005000079F0033511F511600BC0530182E0A80E9C
:10051000B11CB601F301808191810E940D04BCCF12
:100520005301F2E0AF0EB11CF30160807180F30162
:1005300010FD859110FF81913F01882309F4ACCF14
:10054000B60190E00E940D04F2CF043611F0093696
:1005500021F5530117FF09C0F4E0AF0EB11CF30100
:1005600060817181828193810AC0F2E0AF0EB11C7B
:10057000F30160817181072E000C880B990B1F7E9F
:1005800097FF08C090958095709561957F4F8F4F2C
:100590009F4F10642AE030E030C0003791F040F403
:1005A0000835A1F00F3609F057C028E030E011C03F
:1005B000053719F0083731F04FC01F7E2AE030E0D0
:1005C00008C01061146220E130E003C0146020E133
:1005D00032E0530117FF09C0F4E0AF0EB11CF30184
:1005E000608171818281938108C0F2E0AF0EB11CFD
:1005F000F3016081718180E090E0A4010E945F04BA
:10060000082F081916FF05C0B6018DE290E00E9480
:100610000D0414FF15C0FE01E00FF11D8081803331
:1006200079F0B60180E390E00E940D0412FF08C04B
:100630001072812F90E0B601885A9F4F0E940D04DE
:100640000150F401E00FF11D8081B60190E00E949D
:100650000D040111F5CF20CFF6018681978102C0EC
:100660008FEF9FEF2B96EEE00C948C0397FB072EF9
:1006700016F4009407D077FD09D00E94A30307FC6D
:1006800005D03EF4909581959F4F089570956195A2
:100690007F4F0895A1E21A2EAA1BBB1BFD010DC0BE
:1006A000AA1FBB1FEE1FFF1FA217B307E407F50722
:1006B00020F0A21BB30BE40BF50B661F771F881FFE
:1006C000991F1A9469F760957095809590959B0194
:1006D000AC01BD01CF0108952F923F924F925F92DE
:1006E0006F927F928F929F92AF92BF92CF92DF9242
:1006F000EF92FF920F931F93CF93DF93CDB7DEB7A7
:10070000CA1BDB0B0FB6F894DEBF0FBECDBF09943A
:100710002A88398848885F846E847D848C849B8491
:10072000AA84B984C884DF80EE80FD800C811B819F
:10073000AA81B981CE0FD11D0FB6F894DEBF0FBECE
:10074000CDBFED010895AA1BBB1B51E107C0AA1F35
:10075000BB1FA617B70710F0A61BB70B881F991F62
:100760005A95A9F780959095BC01CD010895FC019B
:100770000590061621F00020D9F7C00108953197A1
:10078000CF0108950F931F93CF93DF93009731F418
:100790006115710519F480E090E03AC08B01EC011D
:1007A0006EE070E081E090E00E94BD04FC01892BC6
:1007B00091F380E883830115110571F01387028797
:1007C00081E8838380914A0190914B01892B21F428
:1007D000F0934B01E0934A012097C9F0D187C0877D
:1007E00083818260838380914C0190914D01892B9C
:1007F00071F4F0934D01E0934C0180914E01909182
:100800004F01892B21F4F0934F01E0934E01CF016A
:10081000DF91CF911F910F9108950F931F93CF9365
:10082000DF93FB01238121FD03C08FEF9FEF2CC0DD
:1008300022FF16C046815781248135814217530714
:1008400044F4A081B1819D012F5F3F4F318320830C
:100850008C93268137812F5F3F4F3783268314C0C7
:100860008B01EC01FB010084F185E02D0995892BBA
:10087000E1F6D80116968D919C91179701961796DF
:100880009C938E931697CE01DF91CF911F910F917C
:100890000895A0E0B0E0EFE4F4E00C947C03AE0136
:1008A0004B5F5F4FFA0161917191AF0180914C01F3
:1008B00090914D010E941E02E2E00C949803FA010F
:1008C000AA27283051F1203181F1E8946F936E7F8F
:1008D0006E5F7F4F8F4F9F4FAF4FB1E03ED0B4E080
:1008E0003CD0670F781F891F9A1FA11D680F791FC1
:1008F0008A1F911DA11D6A0F711D811D911DA11DD2
:1009000020D009F468943F912AE0269F11243019E1
:10091000305D3193DEF6CF010895462F4770405D7C
:100920004193B3E00FD0C9F7F6CF462F4F70405D2B
:100930004A3318F0495D31FD4052419302D0A9F786
:10094000EACFB4E0A6959795879577956795BA9580
:10095000C9F700976105710508959B01AC010A2E46
:1009600006945795479537952795BA95C9F7620F1D
:10097000731F841F951FA01D08950F931F93CF937E
:10098000DF93869F8001879F100D969F100D112485
:10099000C8010E94D904EC01009729F0A80160E089
:1009A00070E00E94FA05CE01DF91CF911F910F9167
:1009B00008950F931F93CF93DF938230910510F426
:1009C00082E090E0E0915201F091530120E030E0AC
:1009D000A0E0B0E0309719F140815181028113818C
:1009E00048175907C8F08417950769F4109731F034
:1009F00012960C93129713961C9327C000935201E2
:100A00001093530122C02115310519F042175307E5
:100A100018F49A01BD01EF01DF01F801DBCF2115C8
:100A20003105F9F0281B390B2430310580F48A8117
:100A30009B816115710521F0FB019383828304C0C2
:100A40009093530180935201FE01329644C0FE01FF
:100A5000E20FF31F81939193225031093983288348
:100A60003AC02091500130915101232B41F4209143
:100A700002013091030130935101209350012091E4
:100A80000001309101012115310541F42DB73EB728
:100A90004091040150910501241B350BE091500158
:100AA000F0915101E217F307A0F42E1B3F0B28171A
:100AB000390778F0AC014E5F5F4F2417350748F0D7
:100AC0004E0F5F1F509351014093500181939193BA
:100AD00002C0E0E0F0E0CF01DF91CF911F910F91D4
:100AE0000895CF93DF93009709F481C0FC013297FA
:100AF00013821282A0915201B0915301109781F498
:100B000020813181820F931F20915001309151013A
:100B10002817390751F5F0935101E093500167C050
:100B2000ED0120E030E0CE17DF0740F44A815B8121
:100B30009E0141155105F1F0EA01F5CFD383C2833F
:100B400040815181840F951FC817D90759F48881B6
:100B50009981840F951F0296918380838A819B815E
:100B6000938382832115310529F4F0935301E09397
:100B700052013DC0E901FB83EA8349915991C40FB9
:100B8000D51FEC17FD0761F480819181840F951FBB
:100B90000296E90199838883828193819B838A836A
:100BA000E0E0F0E012968D919C911397009719F078
:100BB000FD01DC01F7CF8D919C9111979D012E5F76
:100BC0003F4F820F931F2091500130915101281700
:100BD000390769F4309729F41092530110925201A9
:100BE00002C013821282B0935101A0935001DF9191
:100BF000CF910895DC0101C06D9341505040E0F762
:060C00000895F894FFCFF7
:100C060000005401200008020401057D46543C946E
:100C1600A45D041C5248203A2025642E2564202019
:100C260020202020200054656D70657261747572F5
:0C0C360065203A2025642E2564200A0069
:00000001FF
