S013000061726475696E6F5F756E6F2E737265636E
S11300000C9440000C945D000C945D000C945D0015
S11300100C945D000C945D000C945D000C945D00E8
S11300200C945D000C945D000C945D000C945D00D8
S11300300C945D000C945D000C9428010C945D00FC
S11300400C945D000C945D000C945D000C945D00B8
S11300500C945D000C945D000C945D000C945D00A8
S11300600C945D000C945D0045464765666700206E
S11300702B2D2E3031323334353637383968000081
S113008011241FBECFEFD8E0DEBFCDBF11E0A0E04A
S1130090B1E0E8EBFBE002C005900D92AA31B10794
S11300A0D9F721E0AAE1B1E001C01D92A133B20762
S11300B0E1F70E9425010C94DA050C9400000F93DB
S11300C01F93CF93DF938C01262FCAE1D1E0EAE09E
S11300D0F0E0BF010E942503CB01BF010E9425036C
S11300E0DC01A65FBE4F8C918883C80164E670E092
S11300F00E942503CB01BF010E942503FC01E65F9A
S1130100FE4F808189838DEC289FE12D1124E69593
S1130110E695E6953E2F330F932F990F990F930F82
S1130120291BA22FB0E0A65FBE4F9C919B7F9A83B0
S1130130E89F812D1124869586958695880F982FA2
S1130140990F990F890FE81BF0E0E65FFE4F80815D
S11301508B83DF91CF911F910F9108958AB1806FA6
S11301608AB98BB1806F8BB984B1807F84B985B132
S11301708F6085B90895189B08C0199B08C01A9B05
S113018008C01B9B08C080E0089581E0089582E0C8
S1130190089583E0089584E008950F931F93CF9307
S11301A0DF93C0E0D0E000E810E08BB1806F8BB942
S11301B09BB198010C2E02C0359527950A94E2F75D
S11301C0822F809589238BB985E08A95F1F7000009
S11301D00E94BB00882339F00E94BB008F5BCC0FC8
S11301E0CC0F8C0F05C02196C430D105F1F681E403
S11301F0DF91CF911F910F9108950E94AE0060E8A6
S113020075E280E090E00E94D401C0E011E0D0E00B
S113021001C0CD2FCC2391F00E94CD008134D1F3C5
S11302200E94CD000E94BD010E94CD00823489F756
S113023084E191E00E94C501CD2FECCF0E94CD0056
S1130240C12F813439F3CD2FE5CF0E94FD00FFCFBC
S11302501F920F920FB60F9211242F933F934F9337
S11302605F936F937F938F939F93AF93BF93EF931A
S1130270FF9380912601882349F080911E0190917B
S11302801F01019690931F0180931E0180911E010E
S113029090911F01883E9340D4F010921F01109258
S11302A01E01809123018F5F80932301809123019C
S11302B08C3368F010922301809122018F5F809328
S11302C02201809122018C3310F01092220180913E
S11302D01E0190911F016AE070E00E942503892BA2
S11302E039F480912501882319F081E0809320015D
S11302F080912401882391F01092240160912301BC
S113030080911E0190911F010E945F0010921F01B5
S113031010921E011092230110922201809121015A
S11303208F5F8093210180912101843010F010921D
S1130330210185B1807F85B9E091210195B1F0E07B
S1130340EA5FFE4F8081892B85B9E0912101F0E0BD
S1130350E65EFE4F80818BB9FF91EF91BF91AF9123
S11303609F918F917F916F915F914F913F912F91C9
S11303700F900FBE0F901F901895E0ECF0E0908165
S113038095FFFDCF8093C6000895CF93DF93EC01D2
S11303908881882331F021960E94BD0189918111C1
S11303A0FBCFDF91CF910895CF92DF92EF92FF922E
S11303B06B017C0160E070E08DEB91E00E94B10381
S11303C0E1ECF0E0808188698083E2ECF0E08081F8
S11303D08660808360E472E48FE090E0A701960178
S11303E00E943903DA01C9010197A109B109892FD2
S11303F09A2FAB2FBB278093C50021502093C400B4
S11304008091C6008FE99FE00197F1F700C00000DA
S1130410FF90EF90DF90CF900895ABE0B0E0E3E180
S1130420F2E00C945F036C017B013A01FC0117823A
S11304301682838181FF03C1CE0101964C01F6012E
S1130440B380F701B3FC0591B3FE01917F01002352
S113045009F4F1C0053249F4B3FC0591B3FE0191EE
S11304607F01053211F010E019C0B601802F90E031
S11304700E94FC0353013501E2CF002309F4DBC0E1
S1130480602F70E08FE690E00E94A603892B49F06C
S1130490F701B3FC0591B3FE01917F0117FFEDCF86
S11304A004C0033239F00C3619F0011105C0C3C081
S11304B01068EECF10E1ECCF602F70E088E690E09A
S11304C00E94A603892B41F05301F4E0AF0EB11C46
S11304D0B6018FE390E010C0033631F0033779F0B2
S11304E0033511F511600BC0530182E0A80EB11C55
S11304F0B601F301808191810E94FC03BCCF5301BA
S1130500F2E0AF0EB11CF30160807180F30110FDC5
S1130510859110FF81913F01882309F4ACCFB60186
S113052090E00E94FC03F2CF043611F0093621F565
S1130530530117FF09C0F4E0AF0EB11CF301608151
S11305407181828193810AC0F2E0AF0EB11CF30184
S113055060817181072E000C880B990B1F7E97FF19
S113056008C090958095709561957F4F8F4F9F4FF0
S113057010642AE030E030C0003791F040F40835D0
S1130580A1F00F3609F057C028E030E011C005375C
S113059019F0083731F04FC01F7E2AE030E008C060
S11305A01061146220E130E003C0146020E132E005
S11305B0530117FF09C0F4E0AF0EB11CF3016081D1
S11305C071818281938108C0F2E0AF0EB11CF30106
S11305D06081718180E090E0A4010E943804082FBA
S11305E0081916FF05C0B6018DE290E00E94FC03D5
S11305F014FF15C0FE01E00FF11D8081803379F0F6
S1130600B60180E390E00E94FC0312FF08C0107260
S1130610812F90E0B601885A9F4F0E94FC0301503D
S1130620F401E00FF11D8081B60190E00E94FC030B
S11306300111F5CF20CFF6018681978102C08FEF9B
S11306409FEF2B96EEE00C947B0397FB072E16F49A
S1130650009407D077FD09D00E94920307FC05D0CF
S11306603EF4909581959F4F0895709561957F4FC5
S11306700895A1E21A2EAA1BBB1BFD010DC0AA1FDF
S1130680BB1FEE1FFF1FA217B307E407F50720F0F7
S1130690A21BB30BE40BF50B661F771F881F991F72
S11306A01A9469F760957095809590959B01AC01BB
S11306B0BD01CF0108952F923F924F925F926F92A6
S11306C07F928F929F92AF92BF92CF92DF92EF92DE
S11306D0FF920F931F93CF93DF93CDB7DEB7CA1B5F
S11306E0DB0B0FB6F894DEBF0FBECDBF09942A888A
S11306F0398848885F846E847D848C849B84AA8432
S1130700B984C884DF80EE80FD800C811B81AA81BE
S1130710B981CE0FD11D0FB6F894DEBF0FBECDBF89
S1130720ED010895AA1BBB1B51E107C0AA1FBB1F03
S1130730A617B70710F0A61BB70B881F991F5A9569
S1130740A9F780959095BC01CD010895FC01059011
S1130750061621F00020D9F7C00108953197CF0182
S113076008950F931F93CF93DF93009731F461158E
S1130770710519F480E090E03AC08B01EC016EE061
S113078070E081E090E00E949604FC01892B91F3D3
S113079080E883830115110571F01387028781E8CE
S11307A083838091270190912801892B21F4F09370
S11307B02801E09327012097C9F0D187C08783815E
S11307C0826083838091290190912A01892B71F49D
S11307D0F0932A01E093290180912B0190912C013F
S11307E0892B21F4F0932C01E0932B01CF01DF91AD
S11307F0CF911F910F9108950F931F93CF93DF9380
S1130800FB01238121FD03C08FEF9FEF2CC022FF4A
S113081016C046815781248135814217530744F419
S1130820A081B1819D012F5F3F4F318320838C9341
S1130830268137812F5F3F4F3783268314C08B0176
S1130840EC01FB010084F185E02D0995892BE1F68B
S1130850D80116968D919C911797019617969C93A3
S11308608E931697CE01DF91CF911F910F9108952A
S1130870FA01AA27283051F1203181F1E8946F93CD
S11308806E7F6E5F7F4F8F4F9F4FAF4FB1E03ED073
S1130890B4E03CD0670F781F891F9A1FA11D680F11
S11308A0791F8A1F911DA11D6A0F711D811D911D44
S11308B0A11D20D009F468943F912AE0269F1124B9
S11308C03019305D3193DEF6CF010895462F47701D
S11308D0405D4193B3E00FD0C9F7F6CF462F4F7078
S11308E0405D4A3318F0495D31FD4052419302D0D6
S11308F0A9F7EACFB4E0A69597958795779567957C
S1130900BA95C9F700976105710508959B01AC017B
S11309100A2E06945795479537952795BA95C9F7A2
S1130920620F731F841F951FA01D08950F931F93BB
S1130930CF93DF93869F8001879F100D969F100DA4
S11309401124C8010E94B204EC01009729F0A80107
S113095060E070E00E94D305CE01DF91CF911F913A
S11309600F9108950F931F93CF93DF9382309105D6
S113097010F482E090E0E0912F01F091300120E04A
S113098030E0A0E0B0E0309719F14081518102815C
S1130990138148175907C8F08417950769F410970D
S11309A031F012960C93129713961C9327C0009360
S11309B02F011093300122C02115310519F042177F
S11309C0530718F49A01BD01EF01DF01F801DBCFF1
S11309D021153105F9F0281B390B2430310580F439
S11309E08A819B816115710521F0FB0193838283C8
S11309F004C09093300180932F01FE01329644C0CD
S1130A00FE01E20FF31F8193919322503109398340
S1130A1028833AC020912D0130912E01232B41F4DB
S1130A20209102013091030130932E0120932D0176
S1130A3020910001309101012115310541F42DB7B8
S1130A403EB74091040150910501241B350BE09100
S1130A502D01F0912E01E217F307A0F42E1B3F0B9A
S1130A602817390778F0AC014E5F5F4F241735071C
S1130A7048F04E0F5F1F50932E0140932D01819338
S1130A80919302C0E0E0F0E0CF01DF91CF911F919C
S1130A900F910895CF93DF93009709F481C0FC016F
S1130AA0329713821282A0912F01B09130011097D6
S1130AB081F420813181820F931F20912D01309187
S1130AC02E012817390751F5F0932E01E0932D01DB
S1130AD067C0ED0120E030E0CE17DF0740F44A8123
S1130AE05B819E0141155105F1F0EA01F5CFD383F5
S1130AF0C28340815181840F951FC817D90759F4C7
S1130B0088819981840F951F0296918380838A81BD
S1130B109B81938382832115310529F4F09330015D
S1130B20E0932F013DC0E901FB83EA834991599188
S1130B30C40FD51FEC17FD0761F480819181840FE8
S1130B40951F0296E90199838883828193819B830F
S1130B508A83E0E0F0E012968D919C9113970097C0
S1130B6019F0FD01DC01F7CF8D919C9111979D0146
S1130B702E5F3F4F820F931F20912D0130912E0144
S1130B802817390769F4309729F41092300110922C
S1130B902F0102C013821282B0932E01A0932D0163
S1130BA0DF91CF910895DC0101C06D934150504015
S10B0BB0E0F70895F894FFCF6B
S1130BB800003101200008020401057D46543C94DC
S10D0BC8A45D041C48656C6C6F000A
S9030000FC
