:100000000C9434000C9451000C9451000C94510049
:100010000C9451000C9451000C9451000C9451001C
:100020000C9451000C9451000C9451000C9451000C
:100030000C9451000C9451000C94E8000C94510065
:100040000C9451000C9451000C9451000C945100EC
:100050000C9451000C9451000C9451000C945100DC
:100060000C9451000C94510011241FBECFEFD8E026
:10007000DEBFCDBF11E0A0E0B1E0E4E2F3E002C0FA
:1000800005900D92AE30B107D9F721E0AEE0B1E0B6
:1000900001C01D92A531B207E1F70E94E5000C9462
:1000A00090010C940000CF93DF93EC01E1E1F1E0CB
:1000B0002AE030E0B9010E946801DC01AC5FBE4F6C
:1000C0008C918083CB01B9010E946801DC01AC5F97
:1000D000BE4F8C918183CE0164E670E00E9468017E
:1000E000CB01B9010E946801DC01AC5FBE4F8C916D
:1000F0008283CE0168EE73E00E946801CB01B901F2
:100100000E946801DC01AC5FBE4F8C918383DF915C
:10011000CF9108950F931F93CF93DF938C01262FD8
:10012000C1E1D1E0EAE0F0E0BF010E946801CB014B
:10013000BF010E946801DC01AC5FBE4F8C918883D7
:10014000C80164E670E00E946801CB01BF010E9413
:100150006801FC01EC5FFE4F808189838DEC289F54
:10016000E12D1124E695E695E6953E2F330F932F6A
:10017000990F990F930F291BA22FB0E0AC5FBE4FD0
:100180009C919B7F9A83E89F812D1124869586956B
:100190008695880F982F990F990F890FE81BF0E02B
:1001A000EC5FFE4F80818B83DF91CF911F910F9188
:1001B000089584B18F6084B985B1807F85B98AB193
:1001C0008FEF8AB99BB18BB908950E944101FFCF8F
:1001D0001F920F920FB60F9211245F936F937F932C
:1001E0008F939F93AF93BF93EF93FF9380910F01F2
:1001F0009091100101969093100180930F018091CE
:100200000E018F5F843018F480930E0102C01092AB
:100210000E01E0910E01F0E0E050FF4F808185B9C2
:10022000E0910E01F0E0EF5EFE4F80818BB980918E
:100230000F019091100164EF71E00E946801892B19
:1002400021F495B180E2892785B9FF91EF91BF91A3
:10025000AF919F918F917F916F915F910F900FBEA2
:100260000F901F90189584B5826084BD85B583601A
:1002700085BD89EF87BDEEE6F0E0808182608083F6
:100280000895259A0E94D90082ED94E00E945300BF
:100290000E94330178948FE99FE00197F1F700C045
:1002A000000010E0C1E0D0E003C01F5FC0E0D0E07C
:1002B000612FCE010E948A008FE99FE00197F1F73C
:1002C00000C000002196C83E93E0D90774F7F0CF34
:1002D00097FB072E16F4009407D077FD09D00E94F3
:1002E0007C0107FC05D03EF4909581959F4F0895C1
:1002F000709561957F4F0895AA1BBB1B51E107C004
:10030000AA1FBB1FA617B70710F0A61BB70B881FA5
:10031000991F5A95A9F780959095BC01CD01089534
:04032000F894FFCF7F
:0E03240008020401057D46543C94A45D041CAF
:00000001FF
