:100000000C9440000C94EC000C94F7000C945D00F0
:100010000C945D000C945D000C945D000C945D00EC
:100020000C945D000C945D000C945D000C945D00DC
:100030000C945D000C945D000C940B010C945D001D
:100040000C945D000C945D000C949B010C945D007D
:100050000C945D000C945D000C945D000C945D00AC
:100060000C945D000C945D00454647656667002072
:100070002B2D2E3031323334353637383968000085
:1000800011241FBECFEFD8E0DEBFCDBF11E0A0E04E
:10009000B1E0ECE4F8E002C005900D92AA31B1079E
:1000A000D9F723E0AAE1B1E001C01D92A033B20765
:1000B000E1F70E9406010C9424040C94000087B11F
:1000C000886387B9449AECE1F1E024E231E08FEFF4
:1000D0008193E217F307E1F708950E945F000E9401
:1000E0008501789468E071E049E151E021E131E077
:1000F000E0E0F1E0ACE1B1E0ED0181918993E61738
:10010000F707D9F78FEF93EDE0E381509040E0409F
:10011000E1F700C00000E1E1F1E0CCE1D1E0819144
:100120008993E417F507D9F78FEF93EDE0E381505A
:100130009040E040E1F700C00000E9E0F1E081918B
:100140008D93E217F307D9F78FEF93EDE0E381503A
:100150009040E040E1F700C00000CACF449840E082
:1001600050E0E82FF0E04598439898B19F01042EA5
:1001700002C0359527950A94E2F721703327220FA4
:10018000331F220F331F220F331F292B28B9459A03
:100190004F5F5F4F4830510531F720E030E070E0AD
:1001A0004598439848B1CB01022E02C0959587959A
:1001B0000A94E2F781709927880F991F880F991F79
:1001C000880F991F842B88B9459A2F5F3F4F28309D
:1001D000310531F7449A08951F920F920FB60F928E
:1001E000112416BC0F900FBE0F901F9018951F92F0
:1001F0000F920FB60F9211248F9386B580932C0126
:100200008F910F900FBE0F901F901895259A78949C
:100210000E946D00FFCF1F920F920FB60F92112414
:100220002F933F934F935F936F937F938F939F93FE
:10023000AF93BF93EF93FF9380910801882349F018
:1002400080912E0190912F01019690932F01809320
:100250002E0180912E0190912F01883E9340D4F081
:1002600010922F0110922E01809135018F5F8093A3
:100270003501809135018C3368F010923501809101
:1002800033018F5F80933301809133018C3310F001
:1002900010923301809132018F5F809332018091FF
:1002A0003201883010F01092320180913201E091D9
:1002B000320161E070E002C0660F771F8A95E2F7B5
:1002C000F0E0E45EFE4F80810E94AE0080912E013E
:1002D00090912F0164EF71E00E942003892B21F49B
:1002E00095B180E2892785B9FF91EF91BF91AF91D8
:1002F0009F918F917F916F915F914F913F912F913E
:100300000F900FBE0F901F90189584B5826084BD2A
:1003100085B5836085BD89EF87BDEEE6F0E080811D
:10032000826080830895E0ECF0E0908195FFFDCF3E
:100330008093C60008951F920F920FB60F9211245A
:100340002F933F934F935F936F937F938F939F93DD
:10035000AF93BF93EF93FF938091C60080933901D1
:1003600080911B018233E0F590912E039B30C0F504
:10037000909139019A3019F590911A0122E3929FD8
:10038000F0011124E65CFE4FE80FF11D108210927F
:100390001B0180912E038F5F80932E039F5F8DEC56
:1003A000989F812D1124869586958695880F282FF4
:1003B000220F220F820F981B90931A0111C0E09117
:1003C0001A0191E0980F90931B019091390122E35B
:1003D000E29FF0011124E65CFE4FE80FF11D9083CF
:1003E000809139010E94930181E080932F03FF9156
:1003F000EF91BF91AF919F918F917F916F915F919D
:100400004F913F912F910F900FBE0F901F90189515
:10041000ABE0B0E0EEE0F2E00C9438036C017B015D
:100420003A01FC0117821682838181FF03C1CE014C
:1004300001964C01F601B380F701B3FC0591B3FEC0
:1004400001917F01002309F4F1C0053249F4B3FCA6
:100450000591B3FE01917F01053211F010E019C042
:10046000B601802F90E00E948A0353013501E2CF4C
:10047000002309F4DBC0602F70E08FE690E00E945B
:100480007F03892B49F0F701B3FC0591B3FE01917D
:100490007F0117FFEDCF04C0033239F00C3619F09D
:1004A000011105C0C3C01068EECF10E1ECCF602F82
:1004B00070E088E690E00E947F03892B41F05301B1
:1004C000F4E0AF0EB11CB6018FE390E010C003362C
:1004D00031F0033779F0033511F511600BC053018A
:1004E00082E0A80EB11CB601F301808191810E94C7
:1004F0008A03BCCF5301F2E0AF0EB11CF301608060
:100500007180F30110FD859110FF81913F018823D7
:1005100009F4ACCFB60190E00E948A03F2CF043612
:1005200011F0093621F5530117FF09C0F4E0AF0EB1
:10053000B11CF30160817181828193810AC0F2E074
:10054000AF0EB11CF30160817181072E000C880B86
:10055000990B1F7E97FF08C09095809570956195C7
:100560007F4F8F4F9F4F10642AE030E030C000373C
:1005700091F040F40835A1F00F3609F057C028E09B
:1005800030E011C0053719F0083731F04FC01F7E39
:100590002AE030E008C01061146220E130E003C0BE
:1005A000146020E132E0530117FF09C0F4E0AF0E00
:1005B000B11CF301608171818281938108C0F2E0F6
:1005C000AF0EB11CF3016081718180E090E0A40165
:1005D0000E94C603082F081916FF05C0B6018DE258
:1005E00090E00E948A0314FF15C0FE01E00FF11D88
:1005F0008081803379F0B60180E390E00E948A0325
:1006000012FF08C01072812F90E0B601885A9F4FE8
:100610000E948A030150F401E00FF11D8081B601B0
:1006200090E00E948A030111F5CF20CFF601868168
:10063000978102C08FEF9FEF2B96EEE00C9454034E
:1006400097FB072E16F4009407D077FD09D00E947F
:100650006B0307FC05D03EF4909581959F4F08955C
:10066000709561957F4F08952F923F924F925F92C0
:100670006F927F928F929F92AF92BF92CF92DF92B2
:10068000EF92FF920F931F93CF93DF93CDB7DEB717
:10069000CA1BDB0B0FB6F894DEBF0FBECDBF0994AB
:1006A0002A88398848885F846E847D848C849B8402
:1006B000AA84B984C884DF80EE80FD800C811B8110
:1006C000AA81B981CE0FD11D0FB6F894DEBF0FBE3F
:1006D000CDBFED010895AA1BBB1B51E107C0AA1FA6
:1006E000BB1FA617B70710F0A61BB70B881F991FD3
:1006F0005A95A9F780959095BC01CD010895FC010C
:100700000590061621F00020D9F7C0010895319711
:10071000CF0108950F931F93CF93DF93FB012381A4
:1007200021FD03C08FEF9FEF2CC022FF16C0468132
:100730005781248135814217530744F4A081B18148
:100740009D012F5F3F4F318320838C93268137811A
:100750002F5F3F4F3783268314C08B01EC01FB01D1
:100760000084F185E02D0995892BE1F6D8011696D4
:100770008D919C911797019617969C938E9316973F
:10078000CE01DF91CF911F910F910895FA01AA2711
:10079000283051F1203181F1E8946F936E7F6E5FC4
:1007A0007F4F8F4F9F4FAF4FB1E03ED0B4E03CD072
:1007B000670F781F891F9A1FA11D680F791F8A1F55
:1007C000911DA11D6A0F711D811D911DA11D20D0BC
:1007D00009F468943F912AE0269F11243019305D76
:1007E0003193DEF6CF010895462F4770405D419367
:1007F000B3E00FD0C9F7F6CF462F4F70405D4A33B4
:1008000018F0495D31FD4052419302D0A9F7EACF7B
:10081000B4E0A6959795879577956795BA95C9F7AA
:1008200000976105710508959B01AC010A2E06949D
:100830005795479537952795BA95C9F7620F731F56
:0C084000841F951FA01D0895F894FFCFA1
:10084C0005D9AD75FF837D8301837D83FF01D77F40
:0A085C00010DE9DD39FD837D830005
:00000001FF
